:020000040800F2
:10000000880F0020210400087D0400087D040008FA
:100010007D0400087D0400087D0400080000000045
:100020000000000000000000000000007D04000847
:100030007D040008000000007D0400087D04000825
:100040007D0400087D0400087D0400087D0400088C
:100050007D0400087D0400087D0400087D0400087C
:100060007D0400087D0400087D0400087D0400086C
:100070007D0400087D0400087D0400087D0400085C
:100080007D0400087D0400087D0400087D0400084C
:100090007D0400087D0400087D0400087D0400083C
:1000A0007D0400087D0400087D0400087D0400082C
:1000B0007D0400087D0400087D0400087D0400081C
:1000C0007D0400087D0400087D0400087D0400080C
:1000D0007D040008BD0B00087D040008690B0008C2
:1000E000ED0A00087D0400087D04000800000000FF
:1000F0000000000000000000000000000000000000
:1001000000000000000000005FF808F180B582B038
:1001100000AF78600B46FB7000F024F80F4A7B6854
:1001200013600E4B0C225A810C4B00229A810B4B10
:1001300000221A81094B0022DA80084B00229A80A3
:100140000748064900F02AFF0548012100F0E0FFBA
:1001500000F028F80837BD4680BD00BF5C040020D1
:100160000038014080B500AF0C4B03229A700B4B56
:100170000422DA70094B4FF480621A80084807495C
:1001800000F080F9054B1822DA70044B4FF400722E
:100190001A800348014900F075F980BD7004002001
:1001A0000008014080B500AF0A4B25221A70094BA8
:1001B00001225A70074B00229A70064B0122DA7016
:1001C000044801F0C3F8044840F22551012200F030
:1001D000BFFF80BD6C0400200038014080B582B0B4
:1001E00000AF78600B46FB7000F024F80F4A7B6884
:1001F00013600E4B0C225A810C4B00229A810B4B40
:1002000000221A81094B0022DA80084B00229A80D2
:100210000748064900F0C2FE0548012100F078FFBA
:1002200000F028F80837BD4680BD00BF78040020E4
:100230000048004080B500AF0C4B03229A700B4B76
:100240000422DA70094B4FF400621A80084807490B
:1002500000F018F9054B1822DA70044B4FF4806255
:100260001A800348014900F00DF980BD7404002094
:10027000000C014080B500AF0A4B27221A70094BD1
:1002800001225A70074B00229A70064B0122DA7045
:10029000044801F05BF8044840F22551012200F0C7
:1002A00057FF80BD880400200048004080B500AFA3
:1002B000154A154B1B6843F0010313601249124B9A
:1002C0005A68124B13404B600F4A0F4B1B6823F0C8
:1002D000847323F4803313600B4A0B4B1B6823F4A5
:1002E00080231360084A084B5B6823F4FE035360C5
:1002F000054B4FF41F029A6000F00CF8044B4FF0CE
:1003000000629A6080BD00BF001002400000FFF84C
:1003100000ED00E080B500AF00F002F880BD00BF46
:1003200080B483B000AF00237B6000233B603A4A77
:10033000394B1B6843F480331360374B1B6803F45D
:1003400000333B607B6801337B603B68002B03D14B
:100350007B68B3F5A06FF0D12F4B1B6803F400331B
:10036000002B02D001233B6001E000233B603B688F
:10037000012B4BD1294A294B1B6843F01003136012
:10038000264A264B1B6823F003031360234A234BA2
:100390001B6843F0020313601F4A1F4B5B685360E6
:1003A0001D4A1D4B5B6853601B4A1B4B5B6843F443
:1003B00080635360184A184B5B6823F47C135360C6
:1003C000154A154B5B6843F4E8135360124A124B0D
:1003D0001B6843F08073136000BF0F4B1B6803F072
:1003E0000073002BF9D00C4A0B4B5B6823F003031E
:1003F0005360094A084B5B6843F00203536000BF37
:10040000054B5B6803F00C03082BF9D10C37BD4694
:100410005DF8047B704700BF0010024000200240DE
:1004200080B582B000AF104B7B60104B3B6007E0A3
:100430003B681A1D3A607A68111D796012681A606B
:100440003B680B4A9342F3D30A480B494FF0000232
:100450008842B8BF40F8042BFADBFFF727FF00F013
:1004600043FA0837BD4680BD0C1900080000002083
:100470005404002054040020880B002080B400AFF6
:10048000FEE700BF80B489B000AF78603960002318
:10049000FB6100233B610023BB610023FB60002361
:1004A0007B610023BB603B68DB7803F00F03FB61DB
:1004B0003B68DB7803F01003002B05D03B689B788A
:1004C0001A46FB691343FB613B681B88DBB2002BB8
:1004D00044D07B681B687B610023BB6138E0BB694B
:1004E000012202FA03F3FB603B681B881A46FB6893
:1004F00013403B613A69FB689A4226D1BB699B0075
:10050000FB60FB680F2202FA03F3BB60BB68DB43AE
:100510007A6913407B61FB68FA6902FA03F37A692E
:1005200013437B613B68DB78282B05D1BB69012233
:100530009A407B685A6108E03B68DB78482B04D11D
:10054000BB6901229A407B681A61BB690133BB61B8
:10055000BB69072BC3D97B687A691A603B681B8823
:10056000FF2B4AD97B685B687B610023BB613EE05F
:10057000BB6908331A4601239340FB603B681B8824
:100580001A46FB6813403B613A69FB689A422BD1DB
:10059000BB699B00FB60FB680F2202FA03F3BB60A0
:1005A000BB68DB437A6913407B61FB68FA6902FA36
:1005B00003F37A6913437B613B68DB78282B07D10F
:1005C000BB6908331A46012303FA02F27B685A61B9
:1005D0003B68DB78482B07D1BB6908331A460123F7
:1005E00003FA02F27B681A61BB690133BB61BB6924
:1005F000072BBDD97B687A695A602437BD465DF800
:10060000047B704780B485B000AF78600B467B8078
:100610000023FB737B689A687B881340002B02D011
:100620000123FB7301E00023FB73FB7B18461437A7
:10063000BD465DF8047B704790B484B000AF0346BC
:100640000A46FB711346BB710023FB60BB7903F0C4
:1006500003039B000F2202FA03F3FB601649BB79E8
:100660009B08DBB21846144ABB799B08DBB2023305
:1006700052F82320FB68DB431A40831C41F82320F7
:100680000D48BB799B08DBB21C460B4ABB799B0823
:10069000DBB2023352F82320F979BB7903F003036C
:1006A0009B0001FA03F31A43A31C40F823201037E0
:1006B000BD4690BC704700BF0000014080B400AF51
:1006C000074B084A1A60064B074A5A60044B074A10
:1006D0009A60034B064ADA60BD465DF8047B7047BA
:1006E0009C040020CC160008D0160008D416000880
:1006F000D816000880B400AF194B1A4A1A60184B7C
:10070000194A5A60164B194A9A60154B184ADA6012
:10071000134B184A1A61124B174A5A61104B174A69
:100720009A610F4B164ADA610D4B164A1A620C4B4E
:10073000154A5A620A4B154A9A62094B144ADA6200
:10074000074B144A1A63064B134A5A63044B134A65
:100750009A63034B124ADA63BD465DF8047B704727
:10076000C0040020DC160008E0160008F01600089F
:10077000FC16000804170008101700081C170008D2
:100780003C17000848170008501700085C170008BD
:10079000701700088417000890170008A0170008B9
:1007A000AC17000880B500AFFFF7A4FFFFF786FF86
:1007B00080BD00BF80B584B000AF78600023FB60CF
:1007C00010E000BF1C48802100F02CFD0346002BE8
:1007D000F8D07B685A1C7A601B789BB21648194681
:1007E00000F0FEFC7B681B78002BEAD100BF1248AA
:1007F000802100F017FD0346002BF8D00E480D2194
:1008000000F0EEFC00BF0C48802100F00BFD034619
:10081000002BF8D008480A2100F0E2FC0023FB601E
:1008200002E0FB680133FB60FB68044A9342F8DD99
:100830001037BD4680BD00BF0048004017370B0091
:1008400080B584B000AF0346FB710023FB60FB79E9
:100850001F4A52F82330BB6010E000BF1D488021C2
:1008600000F0E0FC0346002BF8D0BB685A1CBA60CD
:100870001B789BB21748194600F0B2FCBB681B7886
:10088000002BEAD100BF1348802100F0CBFC0346C7
:10089000002BF8D00F480D2100F0A2FC00BF0D483E
:1008A000802100F0BFFC0346002BF8D009480A2144
:1008B00000F096FC0023FB6002E0FB680133FB6064
:1008C000FB68054A9342F8DD1037BD4680BD00BF86
:1008D000C00400200048004017370B0080B500AF6F
:1008E000FFF760FF80BD00BF80B500AF5D4B43F2F6
:1008F00038121A604FF48020012100F0B1FA08206C
:10090000012100F08FFA0120012100F08BFA042070
:10091000012100F087FA4FF48040012100F082FAB3
:10092000514B03229A70504B1022DA704E4B4322E7
:100930001A804E484C49FFF7A5FD4C4B01225A61E5
:100940004A4B02221A61494B40225A6101200E2172
:10095000FFF772FE464B0322DA70454B2822DA700D
:10096000434B4FF480421A8040484149FFF78AFDCB
:10097000404B0422DA703F4B03229A703D4B4FF4F8
:10098000C0721A8039483B49FFF77CFD4FF4E130D3
:100990000121FFF723FC4FF4E1300121FFF7B6FB03
:1009A000354B00221A6004E0334B1B680133324A96
:1009B0001360314B1B68314A9342F5DD2B4B01220A
:1009C0001A612D4B00221A6004E02B4B1B68013387
:1009D000294A1360284B1B68284A9342F5DD00F032
:1009E0005BF800F06FF8FFF779FF20484FF4807153
:1009F000FFF708FE0346002B05D0214B1B78DBB226
:100A00001846FFF71DFF1F4B1B78DBB2012B28D1C7
:100A10001D4B1B78DBB2002B20D01B4B0D22DA7252
:100A2000194B00221A731948174900F0F5FC1748B2
:100A300000F050FD03461A46144B134414491A465D
:100A40000B4603CB1060516019889B78118193721B
:100A50001048FFF7AFFE0D48FFF7ACFE094B002230
:100A60001A70C2E7600B0020840B0020000C0140CC
:100A7000800B0020AC040020000500201FA107000F
:100A80005A04002059040020B0040020640B002008
:100A9000E8170008F417000880B500AF084B4FF4C2
:100AA00080421A60064B00221A71054B08225A71C7
:100AB000034B01229A71024800F0F0F980BD00BF9B
:100AC0004C0B002080B500AF074B28221A70064B54
:100AD00000225A70044B00229A70034B0122DA70F4
:100AE000014800F033FC80BD480B002080B582B087
:100AF00000AF1A4B00221A6004E0184B1B68013348
:100B0000164A1360154B1B6840F291429342F4DD84
:100B1000124B00221A6004E0104B1B6801330F4A8D
:100B200013600E4B1B681A460D4B1B689A42F3D399
:100B30000C4B40221A6100237B6002E07B6801338A
:100B40007B607B68452BF9DD064B40225A614FF4F0
:100B5000804000F015FA0837BD4680BD0005002032
:100B6000600B0020000C014098B500AF104840F227
:100B7000255100F073FB0346002B17D00D4B1B785B
:100B80005A1CD1B20B4A11701C46094800F03AFBBE
:100B90000346DAB2084B1A55064B1B78013B064A4E
:100BA000D35C034840F2255100F0B4FB98BD00BF70
:100BB00000480040570400200405002098B500AF0D
:100BC0003748202100F02EFB0346002B66D0354B22
:100BD0001B785A1CD1B2334A11701C46304800F0C1
:100BE00011FB0346DAB2304B1A552E4B1B78013BF2
:100BF0002D4AD35CDBB20D2B4BD12A4B1B78023B29
:100C0000294AD35CDAB2294B9B789A4222D1254BF0
:100C10001B78033B244AD35CDAB2244B5B789A42BC
:100C200018D1204B1B78043B1F4AD35CDAB21F4B10
:100C30001B789A420ED11B4B1B780F3B1A4A134468
:100C40001B4819460B2200F073FC1A4B01221A7044
:100C500000BF1EE0134B1B78033B134AD35CDAB290
:100C6000154B1A700F4B1B78023B0F4AD35CDAB25C
:100C7000114B5A70104800F0CBFB0346DAB20F4B11
:100C80001A700E4B1B78DBB23F2B02D90B4B0022A4
:100C90001A70034840F2255100F03CFB98BD00BF9C
:100CA0000038014058040020240800200C000020D7
:100CB000B004002059040020980400205A040020A9
:100CC00080B487B000AF786000237B6100233B6174
:100CD0000023FB600023BB604D4B5B6803F00C03FB
:100CE0007B617B69042B07D0082B09D0002B34D102
:100CF0007B68484A1A6034E07B68464A1A6030E0F4
:100D0000434B5B6803F470133B61414B5B6803F436
:100D10008033FB603B699B0C02333B61FB68002B1B
:100D200006D13B693C4A02FB03F27B681A6013E080
:100D3000374B5B6803F40033002B06D03B69364A1F
:100D400002FB03F27B681A6006E03B69314A02FB52
:100D500003F27B681A6004E003E07B682D4A1A60A6
:100D600000BF2B4B5B6803F0F0037B617B691B09C1
:100D70007B612A4A7B6913441B78DBB2BB607B68CA
:100D80001A68BB68DA407B685A60214B5B6803F4E1
:100D9000E0637B617B691B0A7B61204A7B691344AA
:100DA0001B78DBB2BB607B685A68BB68DA407B6843
:100DB0009A60174B5B6803F460537B617B69DB0AC5
:100DC0007B61164A7B6913441B78DBB2BB607B688E
:100DD0005A68BB68DA407B68DA600D4B5B6803F4E5
:100DE00040437B617B699B0B7B610D4A7B691344AC
:100DF0001B78DBB2BB607B68DA68BB68B2FBF3F2DE
:100E00007B681A611C37BD465DF8047B704700BFE4
:100E10000010024000127A0000093D00100000207E
:100E20002000002080B483B000AF78600B46FB70D8
:100E3000FB78002B06D00949084B9A697B6813435D
:100E40008B6106E00549054B9A697B68DB431340DB
:100E50008B610C37BD465DF8047B70470010024083
:100E600080B483B000AF78600B46FB70FB78002B3A
:100E700006D00949084BDA697B681343CB6106E069
:100E80000549054BDA697B68DB431340CB610C37BE
:100E9000BD465DF8047B70470010024080B485B009
:100EA00000AF78600023FB60344BFB607B689B796C
:100EB000002B4FD03149314B1A687B681B68DB43EC
:100EC00013400B602D492D4B5A687B681B68DB4330
:100ED00013404B607B681B791A46FB681344FB6028
:100EE000FB68FA6811687A6812680A431A60234935
:100EF000224B9A687B681B68DB4313408B601F4959
:100F00001E4BDA687B681B68DB431340CB607B6851
:100F10005B79102B0ED11949184B9A687B681B68B6
:100F200013438B601549154BDA687B681B681343C4
:100F3000CB601DE0114BFB607B685B791A46FB6858
:100F40001344FB60FB68FA6811687A6812680A4308
:100F50001A600DE07B681B791A46FB681344FB603E
:100F6000FB68FA6811687A681268D2430A401A600E
:100F70001437BD465DF8047B704700BF0004014094
:100F800080B483B000AF7860034A7B6853610C374C
:100F9000BD465DF8047B70470004014080B58CB00D
:100FA00000AF786039600023FB620023BB6200233E
:100FB0007B6200233B620023FB617B68FB617B68F3
:100FC0001B8A9BB2FB62FA6A4CF6FF731340FB620A
:100FD0003B68DB881A46FB6A1343FB62FB6A9AB2E2
:100FE0007B681A827B689B899BB2FB62FA6A4EF629
:100FF000F3131340FB623B689A883B681B891343D9
:101000009AB23B685B8913439BB21A46FB6A13434F
:10101000FB62FB6A9AB27B689A817B689B8A9BB26F
:10102000FB62FA6A4FF6FF431340FB623B689B8901
:101030001A46FB6A1343FB62FB6A9AB27B689A8288
:1010400007F108031846FFF73BFEFB692E4A93425F
:1010500002D17B69BB6201E03B69BB627B689B8913
:101060009BB29BB21BB2002B0CDABA6A13469B00F0
:1010700013449A001A443B681B685B00B2FBF3F30D
:101080007B620BE0BA6A13469B0013449A001A4431
:101090003B681B689B00B2FBF3F37B627B6A1B4AD5
:1010A000A2FB03235B091B01FB62FB6A1B09642291
:1010B00002FB03F37A6AD31A3B627B689B899BB27B
:1010C0009BB21BB2002B0CDA3B6ADB0032330F4AB7
:1010D000A2FB03235B0903F00703FA6A1343FB62D5
:1010E0000BE03B6A1B013233084AA2FB03235B0976
:1010F00003F00F03FA6A1343FB62FB6A9AB27B6840
:101100001A813037BD4680BD003801401F85EB5144
:1011100080B483B000AF78600B46FB70FB78002B87
:1011200008D07B689B899BB243F400539AB27B68DA
:101130009A8107E07B689B899BB223F400539AB2A3
:101140007B689A810C37BD465DF8047B704700BF11
:1011500080B487B000AF78600B467B8013467B700D
:1011600000233B610023FB600023BB6000237B6105
:101170007B687B617B88DBB25B09DBB23B617B8890
:1011800003F01F03FB60FB68012202FA03F3BB605C
:101190003B69012B03D17B690C337B6109E03B691F
:1011A000022B03D17B6910337B6102E07B6914332E
:1011B0007B617B78002B06D07B697A691168BA68FD
:1011C0000A431A6006E07B697A691168BA68D243FB
:1011D0000A401A601C37BD465DF8047B704700BFAB
:1011E00080B483B000AF78600B467B807B88C3F30C
:1011F00008039AB27B689A800C37BD465DF8047B81
:10120000704700BF80B483B000AF78607B689B8874
:101210009BB2C3F308039BB218460C37BD465DF87A
:10122000047B704780B485B000AF78600B467B804C
:101230000023FB737B681B889AB27B8813409BB2A8
:10124000002B02D00123FB7301E00023FB73FB7B27
:1012500018461437BD465DF8047B704780B487B0EC
:1012600000AF78600B467B800023FB6000237B612E
:101270000023BB600023FB747B88DBB25B09DBB21D
:10128000BB607B8803F01F037B617B69012202FA4C
:1012900003F37B61BB68012B07D17B689B899BB201
:1012A0001A467B6913407B6111E0BB68022B07D1B2
:1012B0007B681B8A9BB21A467B6913407B6106E000
:1012C0007B689B8A9BB21A467B6913407B617B8853
:1012D0001B0A9BB2FB60FB68012202FA03F3FB606E
:1012E0007B681B889BB21A46FB681340FB607B69D6
:1012F000002B05D0FB68002B02D00123FB7401E01A
:101300000023FB74FB7C18461C37BD465DF8047B4C
:10131000704700BF80B485B000AF78600B467B801B
:101320000023FB810023BB817B881B0AFB81FB8997
:10133000012202FA03F3BB81BB89DB439AB27B68CB
:101340001A801437BD465DF8047B704780B487B0BF
:1013500000AF786000237B6100233B610F23FB60BB
:101360007B68DB78002B3AD0274BDB68DB4303F448
:10137000E0631B0A7B617B69C3F104033B617B690A
:10138000FA6822FA03F3FB607B685B781A463B69D4
:1013900002FA03F37B617B689B781A46FB68134073
:1013A0007A6913437B617B691B017B61174A7B6808
:1013B0001B787969C9B213440A4683F80023134A9B
:1013C0007B681B785B09DBB218467B681B7803F0EF
:1013D0001F03012101FA03F342F820300FE00B490B
:1013E0007B681B785B09DBB218467B681B7803F0CF
:1013F0001F0301229A4000F1200341F823201C37EB
:10140000BD465DF8047B704700ED00E000E100E0C0
:1014100000210A2200F04EB980EA0102844612F04F
:10142000030F4FD111F0030F32D14DF8044D11F0DD
:10143000040F51F8043B0BD0A3F101329A4312F090
:10144000803F04BF4CF8043B51F8043B16D100BF69
:1014500051F8044BA3F101329A4312F0803FA4F1FA
:1014600001320BD14CF8043BA24312F0803F04BF81
:1014700051F8043B4CF8044BEAD023460CF8013BEE
:1014800013F0FF0F4FEA3323F8D15DF8044B704798
:1014900011F0010F06D011F8012B0CF8012B002AD6
:1014A00008BF704711F0020FBFD031F8022B12F0C5
:1014B000FF0F16BF2CF8022B8CF8002012F47F4F80
:1014C000B3D1704711F8012B0CF8012B002AF9D188
:1014D000704700BF20F0030110F00300C0F10000CE
:1014E00051F8043B00F1040C4FEACC0C6FF0000201
:1014F0001CBF22FA0CF213434FF0010C4CEA0C2CE7
:101500004CEA0C4CA3EB0C0222EA030212EACC12C6
:1015100004BF51F8043B0430F4D0C2F1000102EAE8
:101520000102B2FA82F2C2F11F0200EBD200704750
:1015300040EA01039B0770B42BD1032A29D90C463A
:101540000346214654F8046BA6F1013525EA060549
:1015500015F0803F05D1043A032A43F8046B214675
:10156000EFD8A2B10C78013A1C70013101333CB1C3
:101570006AB111F8014B013A03F8014B002CF7D185
:101580002AB11A44002103F8011B9342FBD170BC1D
:1015900070470346E5E700BF2DE9F04F444C834612
:1015A0000E46D4F800E000E02646344614F8015B0D
:1015B0000EEB0500407800F0080000F0FF0800285E
:1015C000F2D12D2D4BD02B2D04BF7578B41C1BB13F
:1015D000102B60D09A4603E0302D54D00A239A464F
:1015E000B8F1000F14BF4FF000406FF00040B0FBA7
:1015F000FAF90027BC460AFB19000CE0303DAB426B
:1016000019DD7E1C05D0CC4524D821D00AFB0C5C0A
:10161000012714F8015B0EEB0506767816F0040F2F
:10162000ECD116F0030606D0012E0CBF3726572644
:10163000AD1BAB42E5DC7B1C16D0C8F100008CEA88
:10164000000040444AB107B1611E1160BDE8F08F4F
:101650008542DBDD4FF0FF37DBE7BDE8F08FB41CE0
:1016600075784FF00108B2E7B8F1000F4FF0220390
:1016700014BF4FF000406FF00040CBF80030002A5C
:10168000E2D1BDE8F08F237803F0DF03582B09D0B7
:1016900008239A46A4E7302D9CD1207800F0DF0083
:1016A000582897D14FF0100A65785346023497E7CF
:1016B0002400002030B40D46034C134601462A4650
:1016C000206830BCFFF768BF5004002044494D003B
:1016D00053525400485254005354410041540000A6
:1016E00041542B434950535441545553000000007A
:1016F00041542B43574C41500000000041542B47AC
:101700004D52000041542B43574D4F44453F00007C
:1017100041542B43574D4F44453D330041542B43D7
:10172000574A41503D22594F55525F535349442225
:101730002C2250415353574F5244220041542B43C3
:10174000574A41503F00000041542B52535400006F
:1017500041542B4349504D55583D310041542B4382
:10176000494F424155443D3131353230300000005F
:1017700041542B4349505345525645523D312C3824
:101780003000000041542B434946535200000000F2
:1017900041542B43495053544152543D3F000000A3
:1017A00041542B43574C49460000000041542B4301
:1017B000575141500000000041542B4349505354AD
:1017C0004152543D222573222C222573222C25645C
:1017D00000000000544350003137322E32302E3199
:1017E00031322E3100000000434D44205245435613
:1017F000440D000041542B43495053454E443D3065
:101800002C323300002020202020202020202828D7
:1018100028282820202020202020202020202020B0
:1018200020202020208810101010101010101010F0
:101830001010101010040404040404040404041020
:1018400010101010101041414141414101010101AE
:101850000101010101010101010101010101010178
:101860001010101010104242424242420202020284
:101870000202020202020202020202020202020248
:1018800010101010200000000000000000000000F8
:101890000000000000000000000000000000000048
:1018A0000000000000000000000000000000000038
:1018B0000000000000000000000000000000000028
:1018C0000000000000000000000000000000000018
:1018D0000000000000000000000000000000000008
:1018E00000000000000000000000000000000000F8
:1018F00000000000000000000000000000000000E8
:0C19000000000000000000004300000098
:10190C00D4170008D8170008500000003A7C3A00A1
:10191C000000000001020304010203040607080989
:10192C00020406080418000800000000140300203C
:10193C007C030020E40300200000000000000000F5
:10194C00000000000000000000000000000000008B
:10195C000000000000000000000000000819000852
:10196C00000000000000000000000000000000006B
:10197C00000000000000000000000000000000005B
:10198C00000000000000000000000000000000004B
:10199C00000000000000000000000000000000003B
:1019AC00000000000000000000000000000000002B
:1019BC00000000000000000000000000000000001B
:1019CC00000000000000000000000000000000000B
:1019DC0001000000000000000E33CDAB34126DE6A8
:1019EC00ECDE05000B000000000000000000000011
:1019FC0000000000000000000000000000000000DB
:101A0C0000000000000000000000000000000000CA
:101A1C0000000000000000000000000000000000BA
:101A2C0000000000000000000000000000000000AA
:041D5C00280000203B
:0400000508000000EF
:00000001FF
